:10000000E9C004C102C101C1D1C2FFC0FEC0FDC030
:10001000FCC0FBC0E5C3F9C0F8C0F7C0F6C09F073D
:100020009F098E059F0577057F039F079F098E0512
:100030009F056A0577059F079F094F055F057707AD
:1000400077097F058E05590759095F0577056A0508
:100050007703FF019F079F098E059F0577057F03A3
:100060009F079F098E059F056A0577059F079F09D2
:100070004F055F05770777097F058E0559075909F1
:100080005F0577056A05770377077F078E077F0788
:1000900077058E05B3059F058E038E079F07B3076F
:1000A0009F078E05B305EF05BE05B3039F057705D2
:1000B00077038E05770577039F056A0577058E051B
:1000C00077057F078E079F0377077F078E077F07D8
:1000D00077058E05B3059F058E038E079F07B3072F
:1000E0009F078E05B305EF05BE05B3039F048E077A
:1000F00086059F058E057F0577036A0577057F05D1
:100100008E058602FF079F048E0786059F058E05D4
:1001100086057703EF058E058E059F05B302FF0761
:10012000470347054F0547054F055900FF0759038A
:100130006A0559055F056A057700FF074F055405F5
:100140004F05430547054F055900FF074F046A0750
:100150006A055F056A055F055900FF079F038E0367
:100160009F05B307BE05B3059F038E039F05B30725
:10017000BE05B3059F039F038E037F0577057F03AD
:100180008E039F01FF07D504BE07D505BE05B30446
:100190009F07B303BE04B307BE05B3079F048E07D2
:1001A0009F03FF0777057F058E059F0577058E0561
:1001B0009F05B305BE03D503EF01FF07DC05E80388
:1001C000EE02F4017701FA00BB007D005D003E0005
:1001D0002F001F0011241FBECFE5D1E0DEBFCDBF31
:1001E00010E0A0E6B0E0E8E9FAE002C005900D9268
:1001F000A038B107D9F720E0A0E8B0E001C01D9217
:10020000A339B207E1F782D045C4FACE1F920F920C
:100210000FB60F9211240F900FBE0F901F901895DC
:1002200016B817B880E888B9089580E0BCD2F8DF26
:1002300083EC99E00197F1F700C0000017BA84E061
:1002400088BB8BB780648BBF8AB780648ABF85B751
:10025000877E806185BF789485B7806285BF8895E9
:1002600085B78F7D85BF8BB78F7B8BBFB29B12C04D
:100270000DC0B2990DC0E9EFF0E03197F1F700C081
:1002800000008150B1F781E087BB089580E00895B8
:1002900080E0089589EF90E00197F1F700C0000039
:1002A00089E0E7CF80E488B982E887B986E886B933
:1002B00088E184BB13B80895CF93C62F47B321E0DC
:1002C00030E0B90102C0660F771F8A95E2F7CB01D3
:1002D000462B47BB97B38095892387BBE3DF87E82D
:1002E00093E10197F1F700C00000C7B9369A36993B
:1002F000FECF84B195B1CF910895E7EAF1E6319749
:10030000F1F700C000008150C1F7089588E10FB6F1
:10031000F89481BD11BC0FBE86E1F1D281E087BBAC
:10032000C29A62E884E0C8DF1BD17894ECEFFDE06C
:10033000E491E0936200E095E093630010928F00F7
:100340008DD2BDD20F2EF4E1FF2EF02D00E018E18A
:10035000B29908C0809180008F5F809380008630C2
:1003600020F427C01092800024C0C498C3988F2D19
:10037000902F27B3286127BB28B3212728BBE3E2AE
:10038000F4EF3197F1F700C000000197009789F76B
:100390004CDF8823E9F3BC9AC49ABB9AC39A84E1E0
:1003A000ACDFC49AC39A81E0FED18AE0A6DF109246
:1003B0008000CAD0EC018091830081114FC081E0A0
:1003C00080938300CB39D10511F4EDD10EC0C8372D
:1003D000F3E6DF0719F482E0E6D143C0CC3C8AE0C3
:1003E000D80719F483E0DFD13CC0CE01855C994089
:1003F000873C9105B0F5BC9AC49ABB9AC39A1092F7
:1004000085001092910010929000E0918500E530F7
:1004100058F4F0E0E05AFF4F808132D2809185009D
:100420008F5F8093850002C010928500209190001C
:10043000309191002F5F3F4F3093910020939000B7
:100440002F30310510F310928F00E3ECF9E0319773
:10045000F1F700C00000C498C39803C08150809396
:10046000830080918100811118C06ED0809381003B
:10047000C0FF10C0BC9B04C081E080938F0010C0FF
:10048000BC9AC49A809181008295869587708093EA
:10049000810006C0BC98C49803C08150809381003D
:1004A00080918200811114C04FD080938200C1FFDF
:1004B0000CC0BB9910C0BB9AC39A809182008295F0
:1004C000869587708093820006C0C398BB9803C04E
:1004D000815080938200BC991BC080918F00813035
:1004E000B9F4BB9915C082E080938F0062E884E084
:1004F000E3DE9093910080939000883C910530F466
:10050000809184008F5F8093840002C010928400E9
:10051000E3ECF9E03197F1F700C0000019CF20E0DB
:1005200030E060FF02C028273927880F991F9923E0
:1005300024F445E2842741EE94277695679561156A
:10054000710579F7C901089560E072E28091650054
:1005500090916600E4DF90936600809365000895B3
:100560009F77009711F481E090E09093660080936C
:1005700065000895B89AC098B99AC198833028F058
:100580008DBD9DB596959EBD02C098E29DBD8150E2
:100590008E3F30F0677088E0861B806C80BF0895C6
:1005A000677088E0861B806D80BF08951F920F9250
:1005B0000FB60F9211242F933F934F935F936F9336
:1005C0007F938F939F93AF93BF93CF93DF93EF93DB
:1005D000FF9380918B00882309F4CDC08091870020
:1005E00090918800A0918900B0918A000097A105A0
:1005F000B10509F0B4C0C0917F008C2F90E0E0916C
:100600008B00F0E0EE0FFF1FEB59FF4F208131818F
:100610008217930708F098C0E0918B00F0E0EE0F8E
:10062000FF1FE959FF4F20813181232B59F0E091C1
:100630008B00F0E0EE0FFF1FE959FF4FD081D7701C
:10064000D15001C0D0E0209186002223B9F0109251
:10065000860028E030E002C0220F331FDA95E2F76F
:10066000C901AA2797FDA095BA2F80938700909380
:100670008800A0938900B0938A005AC0A0918B0093
:10068000FC013197B0E0AA0FBB1FAD59BF4F2D91B0
:100690003C91E20FF31F249120938600E0918B00A0
:1006A000F0E0EE0FFF1FED59FF4F0190F081E02DBC
:1006B000E80FF91FE491F0E0EE0FFF1FE454FE4F46
:1006C00065917491CB01A0E0B0E0880F991FAA1F3B
:1006D000BB1F880F991FAA1FBB1F880F991FAA1F36
:1006E000BB1F880F991FAA1FBB1FBC01CD01660F3E
:1006F000771F881F991F30E040E050E011D1CA01F8
:10070000B90121E030E002C0220F331FDA95E2F791
:10071000442737FD4095542F27D1209387003093ED
:1007200088004093890050938A00CE5FC0937F0079
:10073000E0918B00F0E0EE0FFF1FE959FF4F608161
:100740008091860017DF1CC081E080937F0089B70D
:100750008B7F89BF10BE1CBC10928B0011C001970B
:10076000A109B1098093870090938800A093890024
:10077000B0938A0005C089B78B7F89BF10BE1CBCAF
:10078000FF91EF91DF91CF91BF91AF919F918F91A9
:100790007F916F915F914F913F912F910F900FBE7D
:1007A0000F901F901895882351F090918B00911114
:1007B00016C0982F990F890F8150883180F480934B
:1007C0008B0080B781110BC080918B00882339F09A
:1007D0008AE08DBD83EC80BF89B7846089BF0895AE
:1007E0001F920F920FB60F9211248F9380918E005B
:1007F000813019F08230F9F024C080918C0088306B
:10080000A0F480918D0080FF03C0C39AC49A02C0F7
:10081000C398C49880918D00869580938D008091B7
:100820008C008F5F80938C0013C0C39AC49A82E0BF
:1008300080938E000DC089B78F7E89BF10928E0085
:1008400007C010928E0089B78F7E89BF449A439A61
:100850008F910F900FBE0F901F901895BC98BB9A68
:10086000C39AC49A89B78F7E89BF1ABC13BE8AB552
:1008700082608ABD83B7836083BF10928E00089523
:1008800090918E009111FCCF91E090938E00809317
:100890008D0010928C0083B7887F83BF12BE83B710
:1008A000836083BF8CE089BD88B7806188BFC398AF
:1008B000C49889B7806189BF80E090E00895109264
:1008C0008E0043980895CF93DF938FE887B921EF87
:1008D000C0E0D0E034EC36B93699FECF84B195B1A2
:1008E00081519140C80FD91F2150A9F780E090E0B5
:1008F000BBD09D2F981B892FDF91CF910895CF9367
:10090000C82F80E090E0B0D08F3F41F4DCDFDBDF28
:10091000C0956C2F680F80E090E0AED0CF91089525
:10092000A1E21A2EAA1BBB1BFD010DC0AA1FBB1FF3
:10093000EE1FFF1FA217B307E407F50720F0A21B65
:10094000B30BE40BF50B661F771F881F991F1A94D2
:1009500069F760957095809590959B01AC01BD01FC
:10096000CF01089568940013E894A0E0B0E0EAEBAA
:10097000F4E01DC0EFEFE7F959016A015E23550F5E
:10098000EE08FE2C87019B01AC019E23990F660B9C
:10099000762FCB013BD0CDB7DEB7EAE024C02F9253
:1009A0003F924F925F926F927F928F929F92AF92FF
:1009B000BF92CF92DF92EF92FF920F931F93CF934C
:1009C000DF93CDB7DEB7CA1BDB0B0FB6F894DEBFE3
:1009D0000FBECDBF09942A88398848885F846E8409
:1009E0007D848C849B84AA84B984C884DF80EE8053
:1009F000FD800C811B81AA81B981CE0FD11D0FB65C
:100A0000F894DEBF0FBECDBFED010895DF93CF9305
:100A10009F92A0E49A2E0024D001E001F0011695E7
:100A20000795F794E794D794C794B794A79448F49C
:100A30001068A20FB31FC41FD51FE61FF71F081EA3
:100A4000191E220F331F441F551F661F771F881F53
:100A5000991F9A9421F79D01AE01BF01C001112495
:100A60009F90CF91DF910895E199FECF1FBA8EBB81
:100A7000E09A99278DB30895262FE199FECF1CBAED
:100A80001FBA8EBB2DBB0FB6F894E29AE19A0FBE47
:080A900001960895F894FFCFD0
:100A9800EFDF0000FE00225C01600004008800987F
:100AA80000040020013C0003001E006A000400014D
:010DFC00FAFC
:00000001FF
