:10000000CDC0E8C0E6C0E5C00BC3E3C0E2C0E1C0BC
:10001000E0C0DFC01DC4DDC0DCC0DBC0DAC07709D2
:1000200077097F097F09860986097F097F09770992
:1000300077097F097F09860986097F097F09770586
:100040007704FF01F00BE60BDC0BD20BC80BBE0BE9
:10005000B40BAA0BA00B960B8C0B82078E097F0AA0
:10006000D50847076A087F0A6A084F054F064F09F7
:100070004F054F054F034F039F0577067709770319
:100080009F056A067F0977039F0577065909590579
:100090005F066A0977076A0977097F0677096A03A5
:1000A0009F057706770977039F056A067F0977031F
:1000B0009F0577065F094F055F0677098E056A067B
:1000C0005F0977035F0764075F0764075F077F07C0
:1000D0006A0777078E05FF07EF07BE078E077F05C4
:1000E000FF07BE0796077F077705FF055F076407D1
:1000F0005F0764075F077F076A0777078E05FF07BB
:10010000EF07BE078E077F05FF07BE0777077F074C
:100110008E0477076A075F049F0759075F076A0421
:10012000B3075F076A077704BE076A0777077F038D
:100130005F0764075F0764075F077F076407770748
:100140008E05FF07EF07BE078E077F05FF07BE0777
:1001500096077F077705FF07BE075F0764075F07FE
:1001600064075F077F07640777078E05FF07EF07C0
:10017000BE078E077F05FF07BE0777077F078E0341
:10018000FF01FF01DC05E803EE02F4017701FA004C
:10019000BB007D005D003E002F001F0011241FBE2C
:1001A000CFE5D1E0DEBFCDBF10E0A0E6B0E0EAE3EE
:1001B000FBE002C005900D92AC38B107D9F720E002
:1001C000ACE8B0E001C01D92AE39B207E1F7CAD089
:1001D000B2C416CF1F920F920FB60F9211240F9038
:1001E0000FBE0F901F90189516B817B880E888B901
:1001F000089580E010D3F8DF83EC99E00197F1F7E0
:1002000000C0000017BA84E088BB8BB780648BBF46
:100210008AB780648ABF85B7877E806185BF7894FE
:1002200085B7806285BF889585B78F7D85BF8BB781
:100230008F7B8BBFB29B12C00DC0B2990DC0E9EF8E
:10024000F0E03197F1F700C000008150B1F781E094
:1002500087BB089580E0089580E0089589EF90E0DD
:100260000197F1F700C0000089E0E7CF80E488B98A
:1002700082E887B986E886B988E184BB13B8089517
:10028000CF93C62F47B321E030E0B90102C0660F1B
:10029000771F8A95E2F7CB01462B47BB97B3809532
:1002A000892387BBE3DF87E893E10197F1F700C07B
:1002B0000000C7B9369A3699FECF84B195B1CF9177
:1002C0000895E7EAF1E63197F1F700C000008150A8
:1002D000C1F70895EF92FF920F931F93CF93DF938F
:1002E000C5DF29D36AE054D3E82E092F27B32F6E38
:1002F00027BBC49827B3276F27BBC398C4E1D8E1B5
:1003000028B32D2728BB81E0DCDFC150C9F7C0E04E
:10031000D0E0FF24E7FCF094112707FD1095C49866
:10032000C39885E0CEDF9E01CE15DF050CF4C49A9C
:10033000201731070CF4C39A85E0C3DF88B38871B6
:1003400021F02196CA30D10551F7BC98C498BB98CA
:10035000C39886E0B6DFDF91CF911F910F91FF9098
:10036000EF90089588E10FB6F89481BD11BC0FBEDF
:1003700086E1FDD281E087BB62E884E081DF2CD199
:100380007894EEEFFFE0E491E0936200E095E09373
:10039000630010929A009AD2CAD29CDF6894BB2460
:1003A000B1F80F2EF4E8CF2EF0E0DF2EF02D0F2E57
:1003B000FEE7EF2EF0E0FF2EF02D08E710E000D171
:1003C000EC0180918E00811176C0B0928E00CB3905
:1003D000D10519F481E01FD20EC0C83783E6D807D3
:1003E00019F48B2D18D212C0CC3C9AE0D90719F41D
:1003F00086E011D216C0CE0187589140099730F49B
:10040000DFD0F8019183808383E005D2CE01855A45
:1004100091400E9730F4D4D0F7019183808384E02B
:10042000FAD1CE01835C91404D9730F4C9D0F601EA
:100430009183808385E0EFD1CE0189509240489727
:1004400008F448DFCE01855C9940873C9105B0F502
:10045000BC9AC49ABB9AC39A1092900010929C00C6
:1004600010929B00E0919000E53058F4F0E0E05AE3
:10047000FF4F80813DD2809190008F5F80939000EC
:1004800002C01092900020919B0030919C002F5F41
:100490003F4F30939C0020939B002F30310510F389
:1004A00010929A0083EC99E00197F1F700C00000E8
:1004B000C498C39803C0815080938E0080918C00B3
:1004C000811118C07DD080938C00C0FF10C0BC9BF0
:1004D00004C081E080939A0010C0BC9AC49A8091B5
:1004E0008C0082958695877080938C0006C0BC989E
:1004F000C49803C0815080938C0080918D0081113D
:1005000014C05ED080938D00C1FF0CC0BB9910C099
:10051000BB9AC39A80918D0082958695877080934F
:100520008D0006C0C398BB9803C0815080938D0096
:10053000BC992AC080919A00813031F5BB9924C0C2
:10054000B0929A0062E884E09BDE90939C008093D6
:100550009B00883C9105B0F480918F0091E0980F4A
:1005600090938F008B3080F044DE8823E9F3109263
:100570008F00BC9AC49ABB9AC39A84E1A2DEC49A43
:10058000C39A02C010928F0083EC99E00197F1F7B3
:1005900000C0000014CF20E030E060FF02C0282738
:1005A0003927880F991F992324F445E2842741EEC7
:1005B0009427769567956115710579F7C9010895B6
:1005C00060E072E28091650090916600E4DF9093B4
:1005D00066008093650008959F77009711F481E08D
:1005E00090E090936600809365000895B89AC09853
:1005F000833028F08DBD9DB596959EBD02C098E2D2
:100600009DBD81508E3F30F0677088E0861B806C06
:1006100080BF0895677088E0861B806D80BF089555
:100620001F920F920FB60F9211242F933F934F9367
:100630005F936F937F938F939F93AF93BF93CF936A
:10064000DF93EF93FF9380919600882309F4CCC049
:100650008091920090919300A0919400B0919500A8
:100660000097A105B10509F0B3C0C09167008C2FB8
:1006700090E0E0919600F0E0EE0FFF1FEA59FF4F87
:10068000208131818217930708F098C0E09196008D
:10069000F0E0EE0FFF1FE859FF4F20813181232B3F
:1006A00059F0E0919600F0E0EE0FFF1FE859FF4F80
:1006B000D081D770D15001C0D0E020919100222389
:1006C000B9F01092910028E030E002C0220F331FF1
:1006D000DA95E2F7C901AA2797FDA095BA2F809372
:1006E000920090939300A0939400B09395005AC009
:1006F000A0919600FC013197B0E0AA0FBB1FAC5946
:10070000BF4F2D913C91E20FF31F24912093910054
:10071000E0919600F0E0EE0FFF1FEC59FF4F0190C3
:10072000F081E02DE80FF91FE491F0E0EE0FFF1FDC
:10073000EC57FE4F65917491CB01A0E0B0E0880FBB
:10074000991FAA1FBB1F880F991FAA1FBB1F880FC5
:10075000991FAA1FBB1F880F991FAA1FBB1FBC018F
:10076000CD01660F771F881F991F30E040E050E0F1
:100770001CD1CA01B90121E030E002C0220F331FB1
:10078000DA95E2F7442737FD4095542F32D1209374
:100790009200309393004093940050939500CE5F65
:1007A000C0936700E0919600F0E0EE0FFF1FE8595C
:1007B000FF4F60818091910019DF1AC081E0809322
:1007C000670089B78B7F89BF10BE1092960010C05A
:1007D0000197A109B1098093920090939300A0938F
:1007E0009400B093950004C089B78B7F89BF10BE79
:1007F000FF91EF91DF91CF91BF91AF919F918F9139
:100800007F916F915F914F913F912F910F900FBE0C
:100810000F901F901895882351F090919600911198
:1008200016C0982F990F890F8150803280F48093E1
:10083000960080B781110BC080919600882339F013
:100840008AE08DBD83EC80BF89B7846089BF08953D
:100850001F920F920FB60F9211248F9380919900DF
:10086000813019F08230F9F024C0809197008830EF
:10087000A0F48091980080FF03C0C39AC49A02C07C
:10088000C398C49880919800869580939800809131
:1008900097008F5F8093970013C0C39AC49A82E039
:1008A000809399000DC089B78F7E89BF10929900FF
:1008B00007C01092990089B78F7E89BF449A439AE6
:1008C0008F910F900FBE0F901F901895BC98BB9AF8
:1008D000C39AC49A89B78F7E89BF1ABC13BE8AB5E2
:1008E00082608ABD83B7836083BF109299000895A8
:1008F000909199009111FCCF91E090939900809391
:1009000098001092970083B7887F83BF12BE83B789
:10091000836083BF8CE089BD88B7806188BFC3983E
:10092000C49889B7806189BF80E090E008951092F3
:10093000990043980895CF93DF938FE887B921EF0B
:10094000C0E0D0E034EC36B93699FECF84B195B131
:1009500081519140C80FD91F2150A9F780E090E044
:10096000D4D09D2F981B892FDF91CF910895CF93DD
:10097000C82F80E090E0C9D08F3F41F4DCDFDBDF9F
:10098000C0956C2F680F80E090E0C7D0CF9108959C
:1009900087FB082E062687FD819567FD61957BD034
:1009A0000EF4919507FC81950895A1E21A2EAA1BD9
:1009B000BB1BFD010DC0AA1FBB1FEE1FFF1FA2170F
:1009C000B307E407F50720F0A21BB30BE40BF50B0C
:1009D000661F771F881F991F1A9469F76095709595
:1009E000809590959B01AC01BD01CF01089568945D
:1009F0000013E894A0E0B0E0EFEFF4E01DC0EFEFEB
:100A0000E7F959016A015E23550FEE08FE2C8701B4
:100A10009B01AC019E23990F660B762FCB0147D02B
:100A2000CDB7DEB7EAE024C02F923F924F925F929B
:100A30006F927F928F929F92AF92BF92CF92DF92EE
:100A4000EF92FF920F931F93CF93DF93CDB7DEB753
:100A5000CA1BDB0B0FB6F894DEBF0FBECDBF0994E7
:100A60002A88398848885F846E847D848C849B843E
:100A7000AA84B984C884DF80EE80FD800C811B814C
:100A8000AA81B981CE0FD11D0FB6F894DEBF0FBE7B
:100A9000CDBFED010895991B79E004C0991F961709
:100AA00008F0961B881F7A95C9F780950895DF9303
:100AB000CF939F92A0E49A2E0024D001E001F00190
:100AC00016950795F794E794D794C794B794A7948D
:100AD00048F41068A20FB31FC41FD51FE61FF71FED
:100AE000081E191E220F331F441F551F661F771F34
:100AF000881F991F9A9421F79D01AE01BF01C00183
:100B000011249F90CF91DF910895E199FECF1FBAF4
:100B10008EBBE09A99278DB30895262FE199FECFD9
:100B20001CBA1FBA8EBB2DBB0FB6F894E29AE19A9D
:100B30000FBE01960895F894FFCFEFDF0000FE008E
:100B400022016A005A000300C400C00004006200D1
:100B5000080004005C0006000400440018000500C2
:060B60001E002600040047
:010FFE0007EB
:00000001FF
